{
  "_format": "hh-sol-artifact-1",
  "contractName": "TokenV2",
  "sourceName": "contracts/TokenV2.sol",
  "abi": [
    {
      "anonymous": false,
      "inputs": [
        {
          "indexed": true,
          "internalType": "address",
          "name": "owner",
          "type": "address"
        },
        {
          "indexed": true,
          "internalType": "address",
          "name": "spender",
          "type": "address"
        },
        {
          "indexed": false,
          "internalType": "uint256",
          "name": "value",
          "type": "uint256"
        }
      ],
      "name": "Approval",
      "type": "event"
    },
    {
      "anonymous": false,
      "inputs": [
        {
          "indexed": false,
          "internalType": "uint8",
          "name": "version",
          "type": "uint8"
        }
      ],
      "name": "Initialized",
      "type": "event"
    },
    {
      "anonymous": false,
      "inputs": [
        {
          "indexed": true,
          "internalType": "address",
          "name": "burner",
          "type": "address"
        },
        {
          "indexed": false,
          "internalType": "uint256",
          "name": "amount",
          "type": "uint256"
        }
      ],
      "name": "TokensBurned",
      "type": "event"
    },
    {
      "anonymous": false,
      "inputs": [
        {
          "indexed": true,
          "internalType": "address",
          "name": "to",
          "type": "address"
        },
        {
          "indexed": false,
          "internalType": "uint256",
          "name": "amount",
          "type": "uint256"
        }
      ],
      "name": "TokensMinted",
      "type": "event"
    },
    {
      "anonymous": false,
      "inputs": [
        {
          "indexed": true,
          "internalType": "address",
          "name": "from",
          "type": "address"
        },
        {
          "indexed": true,
          "internalType": "address",
          "name": "to",
          "type": "address"
        },
        {
          "indexed": false,
          "internalType": "uint256",
          "name": "value",
          "type": "uint256"
        }
      ],
      "name": "Transfer",
      "type": "event"
    },
    {
      "anonymous": false,
      "inputs": [
        {
          "indexed": false,
          "internalType": "string",
          "name": "version",
          "type": "string"
        }
      ],
      "name": "VersionUpdated",
      "type": "event"
    },
    {
      "inputs": [
        {
          "internalType": "address",
          "name": "owner",
          "type": "address"
        },
        {
          "internalType": "address",
          "name": "spender",
          "type": "address"
        }
      ],
      "name": "allowance",
      "outputs": [
        {
          "internalType": "uint256",
          "name": "",
          "type": "uint256"
        }
      ],
      "stateMutability": "view",
      "type": "function"
    },
    {
      "inputs": [
        {
          "internalType": "address",
          "name": "spender",
          "type": "address"
        },
        {
          "internalType": "uint256",
          "name": "amount",
          "type": "uint256"
        }
      ],
      "name": "approve",
      "outputs": [
        {
          "internalType": "bool",
          "name": "",
          "type": "bool"
        }
      ],
      "stateMutability": "nonpayable",
      "type": "function"
    },
    {
      "inputs": [
        {
          "internalType": "address",
          "name": "account",
          "type": "address"
        }
      ],
      "name": "balanceOf",
      "outputs": [
        {
          "internalType": "uint256",
          "name": "",
          "type": "uint256"
        }
      ],
      "stateMutability": "view",
      "type": "function"
    },
    {
      "inputs": [
        {
          "internalType": "uint256",
          "name": "amount",
          "type": "uint256"
        }
      ],
      "name": "burn",
      "outputs": [],
      "stateMutability": "nonpayable",
      "type": "function"
    },
    {
      "inputs": [],
      "name": "capacitySupply",
      "outputs": [
        {
          "internalType": "uint256",
          "name": "",
          "type": "uint256"
        }
      ],
      "stateMutability": "view",
      "type": "function"
    },
    {
      "inputs": [],
      "name": "decimals",
      "outputs": [
        {
          "internalType": "uint8",
          "name": "",
          "type": "uint8"
        }
      ],
      "stateMutability": "view",
      "type": "function"
    },
    {
      "inputs": [
        {
          "internalType": "address",
          "name": "spender",
          "type": "address"
        },
        {
          "internalType": "uint256",
          "name": "subtractedValue",
          "type": "uint256"
        }
      ],
      "name": "decreaseAllowance",
      "outputs": [
        {
          "internalType": "bool",
          "name": "",
          "type": "bool"
        }
      ],
      "stateMutability": "nonpayable",
      "type": "function"
    },
    {
      "inputs": [],
      "name": "getVersion",
      "outputs": [
        {
          "internalType": "string",
          "name": "",
          "type": "string"
        }
      ],
      "stateMutability": "pure",
      "type": "function"
    },
    {
      "inputs": [
        {
          "internalType": "address",
          "name": "spender",
          "type": "address"
        },
        {
          "internalType": "uint256",
          "name": "addedValue",
          "type": "uint256"
        }
      ],
      "name": "increaseAllowance",
      "outputs": [
        {
          "internalType": "bool",
          "name": "",
          "type": "bool"
        }
      ],
      "stateMutability": "nonpayable",
      "type": "function"
    },
    {
      "inputs": [
        {
          "internalType": "address",
          "name": "initialOwner",
          "type": "address"
        },
        {
          "internalType": "uint256",
          "name": "maxCapacitySupply",
          "type": "uint256"
        },
        {
          "internalType": "uint256",
          "name": "initialSupply",
          "type": "uint256"
        }
      ],
      "name": "initialize",
      "outputs": [],
      "stateMutability": "nonpayable",
      "type": "function"
    },
    {
      "inputs": [
        {
          "internalType": "address",
          "name": "to",
          "type": "address"
        },
        {
          "internalType": "uint256",
          "name": "amount",
          "type": "uint256"
        }
      ],
      "name": "mint",
      "outputs": [],
      "stateMutability": "nonpayable",
      "type": "function"
    },
    {
      "inputs": [],
      "name": "name",
      "outputs": [
        {
          "internalType": "string",
          "name": "",
          "type": "string"
        }
      ],
      "stateMutability": "view",
      "type": "function"
    },
    {
      "inputs": [],
      "name": "owner",
      "outputs": [
        {
          "internalType": "address",
          "name": "",
          "type": "address"
        }
      ],
      "stateMutability": "view",
      "type": "function"
    },
    {
      "inputs": [],
      "name": "setVersion",
      "outputs": [],
      "stateMutability": "nonpayable",
      "type": "function"
    },
    {
      "inputs": [],
      "name": "symbol",
      "outputs": [
        {
          "internalType": "string",
          "name": "",
          "type": "string"
        }
      ],
      "stateMutability": "view",
      "type": "function"
    },
    {
      "inputs": [],
      "name": "totalSupply",
      "outputs": [
        {
          "internalType": "uint256",
          "name": "",
          "type": "uint256"
        }
      ],
      "stateMutability": "view",
      "type": "function"
    },
    {
      "inputs": [
        {
          "internalType": "address",
          "name": "to",
          "type": "address"
        },
        {
          "internalType": "uint256",
          "name": "amount",
          "type": "uint256"
        }
      ],
      "name": "transfer",
      "outputs": [
        {
          "internalType": "bool",
          "name": "",
          "type": "bool"
        }
      ],
      "stateMutability": "nonpayable",
      "type": "function"
    },
    {
      "inputs": [
        {
          "internalType": "address",
          "name": "from",
          "type": "address"
        },
        {
          "internalType": "address",
          "name": "to",
          "type": "address"
        },
        {
          "internalType": "uint256",
          "name": "amount",
          "type": "uint256"
        }
      ],
      "name": "transferFrom",
      "outputs": [
        {
          "internalType": "bool",
          "name": "",
          "type": "bool"
        }
      ],
      "stateMutability": "nonpayable",
      "type": "function"
    }
  ],
  "bytecode": "0x608060405234801561001057600080fd5b50611533806100206000396000f3fe608060405234801561001057600080fd5b50600436106101165760003560e01c806340c10f19116100a25780638da5cb5b116100715780638da5cb5b1461023c57806395d89b4114610257578063a457c2d71461025f578063a9059cbb14610272578063dd62ed3e1461028557600080fd5b806340c10f19146101da57806342966c68146101ed57806370a08231146102005780637a1ac61e1461022957600080fd5b806318160ddd116100e957806318160ddd1461018b5780631934b5581461019d57806323b872dd146101a5578063313ce567146101b857806339509351146101c757600080fd5b806306fdde031461011b578063095ea7b3146101395780630d8e6e2c1461015c5780630e15932b14610181575b600080fd5b610123610298565b60405161013091906110b0565b60405180910390f35b61014c61014736600461111a565b61032a565b6040519015158152602001610130565b6040805180820190915260098152682b32b939b4b7b7101960b91b6020820152610123565b610189610344565b005b6035545b604051908152602001610130565b60975461018f565b61014c6101b3366004611144565b6103a2565b60405160128152602001610130565b61014c6101d536600461111a565b6103c6565b6101896101e836600461111a565b6103e8565b6101896101fb366004611180565b6105c3565b61018f61020e366004611199565b6001600160a01b031660009081526033602052604090205490565b6101896102373660046111bb565b6106d4565b6098546040516001600160a01b039091168152602001610130565b61012361098e565b61014c61026d36600461111a565b61099d565b61014c61028036600461111a565b610a18565b61018f6102933660046111ee565b610a26565b6060603680546102a790611221565b80601f01602080910402602001604051908101604052809291908181526020018280546102d390611221565b80156103205780601f106102f557610100808354040283529160200191610320565b820191906000526020600020905b81548152906001019060200180831161030357829003601f168201915b5050505050905090565b600033610338818585610a51565b60019150505b92915050565b7f6a32d7cc9dce117d55c00a92483b418c8ee6ad1756eb85159d6ab5bb4e44754f61038b6040805180820190915260098152682b32b939b4b7b7101960b91b602082015290565b60405161039891906110b0565b60405180910390a1565b6000336103b0858285610b76565b6103bb858585610bea565b506001949350505050565b6000336103388185856103d98383610a26565b6103e39190611271565b610a51565b6098546001600160a01b031633146104475760405162461bcd60e51b815260206004820152601760248201527f43616c6c6572206973206e6f7420746865206f776e657200000000000000000060448201526064015b60405180910390fd5b61044f610d95565b6001600160a01b0382166104a55760405162461bcd60e51b815260206004820152601f60248201527f43616e6e6f74206d696e7420746f20746865207a65726f206164647265737300604482015260640161043e565b600081116105035760405162461bcd60e51b815260206004820152602560248201527f4d696e7420616d6f756e74206d7573742062652067726561746572207468616e604482015264207a65726f60d81b606482015260840161043e565b6097548161051060355490565b61051a9190611271565b11156105685760405162461bcd60e51b815260206004820152601f60248201527f4d696e74696e67206578636565647320636170616369747920737570706c7900604482015260640161043e565b6105728282610dee565b816001600160a01b03167f3f2c9d57c068687834f0de942a9babb9e5acab57d516d3480a3c16ee165a4273826040516105ad91815260200190565b60405180910390a26105bf6001606555565b5050565b6105cb610d95565b600081116106295760405162461bcd60e51b815260206004820152602560248201527f4275726e20616d6f756e74206d7573742062652067726561746572207468616e604482015264207a65726f60d81b606482015260840161043e565b336000908152603360205260409020548111156106885760405162461bcd60e51b815260206004820152601b60248201527f4275726e20616d6f756e7420657863656564732062616c616e63650000000000604482015260640161043e565b6106923382610eb6565b60405181815233907ffd38818f5291bf0bb3a2a48aadc06ba8757865d1dabd804585338aab3009dcb69060200160405180910390a26106d16001606555565b50565b600054610100900460ff16158080156106f45750600054600160ff909116105b8061070e5750303b15801561070e575060005460ff166001145b6107715760405162461bcd60e51b815260206004820152602e60248201527f496e697469616c697a61626c653a20636f6e747261637420697320616c72656160448201526d191e481a5b9a5d1a585b1a5e995960921b606482015260840161043e565b6000805460ff191660011790558015610794576000805461ff0019166101001790555b6001600160a01b0384166107ea5760405162461bcd60e51b815260206004820181905260248201527f4f776e65722063616e6e6f7420626520746865207a65726f2061646472657373604482015260640161043e565b6000831161084c5760405162461bcd60e51b815260206004820152602960248201527f436170616369747920737570706c79206d7573742062652067726561746572206044820152687468616e207a65726f60b81b606482015260840161043e565b8282111561089c5760405162461bcd60e51b815260206004820152601f60248201527f496e697469616c20737570706c79206578636565647320636170616369747900604482015260640161043e565b6108e66040518060400160405280600b81526020016a2637b1b5b2902a37b5b2b760a91b815250604051806040016040528060058152602001644c4f434b4560d81b815250610fe7565b6108ee611018565b6108fa6012600a611368565b6109049084611377565b609755609880546001600160a01b0319166001600160a01b03861617905561094284601261093390600a611368565b61093d9085611377565b610dee565b8015610988576000805461ff0019169055604051600181527f7f26b83ff96e1f2b6a682f133852f6798a09c465da95921460cefb38474024989060200160405180910390a15b50505050565b6060603780546102a790611221565b600033816109ab8286610a26565b905083811015610a0b5760405162461bcd60e51b815260206004820152602560248201527f45524332303a2064656372656173656420616c6c6f77616e63652062656c6f77604482015264207a65726f60d81b606482015260840161043e565b6103bb8286868403610a51565b600033610338818585610bea565b6001600160a01b03918216600090815260346020908152604080832093909416825291909152205490565b6001600160a01b038316610ab35760405162461bcd60e51b8152602060048201526024808201527f45524332303a20617070726f76652066726f6d20746865207a65726f206164646044820152637265737360e01b606482015260840161043e565b6001600160a01b038216610b145760405162461bcd60e51b815260206004820152602260248201527f45524332303a20617070726f766520746f20746865207a65726f206164647265604482015261737360f01b606482015260840161043e565b6001600160a01b0383811660008181526034602090815260408083209487168084529482529182902085905590518481527f8c5be1e5ebec7d5bd14f71427d1e84f3dd0314c0f7b2291e5b200ac8c7c3b92591015b60405180910390a3505050565b6000610b828484610a26565b905060001981146109885781811015610bdd5760405162461bcd60e51b815260206004820152601d60248201527f45524332303a20696e73756666696369656e7420616c6c6f77616e6365000000604482015260640161043e565b6109888484848403610a51565b6001600160a01b038316610c4e5760405162461bcd60e51b815260206004820152602560248201527f45524332303a207472616e736665722066726f6d20746865207a65726f206164604482015264647265737360d81b606482015260840161043e565b6001600160a01b038216610cb05760405162461bcd60e51b815260206004820152602360248201527f45524332303a207472616e7366657220746f20746865207a65726f206164647260448201526265737360e81b606482015260840161043e565b6001600160a01b03831660009081526033602052604090205481811015610d285760405162461bcd60e51b815260206004820152602660248201527f45524332303a207472616e7366657220616d6f756e7420657863656564732062604482015265616c616e636560d01b606482015260840161043e565b6001600160a01b0380851660008181526033602052604080822086860390559286168082529083902080548601905591517fddf252ad1be2c89b69c2b068fc378daa952ba7f163c4a11628f55a4df523b3ef90610d889086815260200190565b60405180910390a3610988565b600260655403610de75760405162461bcd60e51b815260206004820152601f60248201527f5265656e7472616e637947756172643a207265656e7472616e742063616c6c00604482015260640161043e565b6002606555565b6001600160a01b038216610e445760405162461bcd60e51b815260206004820152601f60248201527f45524332303a206d696e7420746f20746865207a65726f206164647265737300604482015260640161043e565b8060356000828254610e569190611271565b90915550506001600160a01b0382166000818152603360209081526040808320805486019055518481527fddf252ad1be2c89b69c2b068fc378daa952ba7f163c4a11628f55a4df523b3ef910160405180910390a35050565b6001606555565b6001600160a01b038216610f165760405162461bcd60e51b815260206004820152602160248201527f45524332303a206275726e2066726f6d20746865207a65726f206164647265736044820152607360f81b606482015260840161043e565b6001600160a01b03821660009081526033602052604090205481811015610f8a5760405162461bcd60e51b815260206004820152602260248201527f45524332303a206275726e20616d6f756e7420657863656564732062616c616e604482015261636560f01b606482015260840161043e565b6001600160a01b03831660008181526033602090815260408083208686039055603580548790039055518581529192917fddf252ad1be2c89b69c2b068fc378daa952ba7f163c4a11628f55a4df523b3ef9101610b69565b505050565b600054610100900460ff1661100e5760405162461bcd60e51b815260040161043e9061138e565b6105bf8282611049565b600054610100900460ff1661103f5760405162461bcd60e51b815260040161043e9061138e565b611047611089565b565b600054610100900460ff166110705760405162461bcd60e51b815260040161043e9061138e565b603661107c838261143d565b506037610fe2828261143d565b600054610100900460ff16610eaf5760405162461bcd60e51b815260040161043e9061138e565b600060208083528351808285015260005b818110156110dd578581018301518582016040015282016110c1565b506000604082860101526040601f19601f8301168501019250505092915050565b80356001600160a01b038116811461111557600080fd5b919050565b6000806040838503121561112d57600080fd5b611136836110fe565b946020939093013593505050565b60008060006060848603121561115957600080fd5b611162846110fe565b9250611170602085016110fe565b9150604084013590509250925092565b60006020828403121561119257600080fd5b5035919050565b6000602082840312156111ab57600080fd5b6111b4826110fe565b9392505050565b6000806000606084860312156111d057600080fd5b6111d9846110fe565b95602085013595506040909401359392505050565b6000806040838503121561120157600080fd5b61120a836110fe565b9150611218602084016110fe565b90509250929050565b600181811c9082168061123557607f821691505b60208210810361125557634e487b7160e01b600052602260045260246000fd5b50919050565b634e487b7160e01b600052601160045260246000fd5b8082018082111561033e5761033e61125b565b600181815b808511156112bf5781600019048211156112a5576112a561125b565b808516156112b257918102915b93841c9390800290611289565b509250929050565b6000826112d65750600161033e565b816112e35750600061033e565b81600181146112f957600281146113035761131f565b600191505061033e565b60ff8411156113145761131461125b565b50506001821b61033e565b5060208310610133831016604e8410600b8410161715611342575081810a61033e565b61134c8383611284565b80600019048211156113605761136061125b565b029392505050565b60006111b460ff8416836112c7565b808202811582820484141761033e5761033e61125b565b6020808252602b908201527f496e697469616c697a61626c653a20636f6e7472616374206973206e6f74206960408201526a6e697469616c697a696e6760a81b606082015260800190565b634e487b7160e01b600052604160045260246000fd5b601f821115610fe257600081815260208120601f850160051c810160208610156114165750805b601f850160051c820191505b8181101561143557828155600101611422565b505050505050565b815167ffffffffffffffff811115611457576114576113d9565b61146b816114658454611221565b846113ef565b602080601f8311600181146114a057600084156114885750858301515b600019600386901b1c1916600185901b178555611435565b600085815260208120601f198616915b828110156114cf578886015182559484019460019091019084016114b0565b50858210156114ed5787850151600019600388901b60f8161c191681555b5050505050600190811b0190555056fea26469706673582212207013ba1548c6a8939f34fe70e2fe93bdf2dd60c00a480428dfb5878d7c2a34ef64736f6c63430008110033",
  "linkReferences": {},
  "deployedLinkReferences": {}
}