{
  "_format": "hh-sol-artifact-1",
  "contractName": "ConvictionVoting",
  "sourceName": "contracts/ConvictionVoting.sol",
  "abi": [
    {
      "anonymous": false,
      "inputs": [
        {
          "indexed": false,
          "internalType": "address",
          "name": "previousAdmin",
          "type": "address"
        },
        {
          "indexed": false,
          "internalType": "address",
          "name": "newAdmin",
          "type": "address"
        }
      ],
      "name": "AdminChanged",
      "type": "event"
    },
    {
      "anonymous": false,
      "inputs": [
        {
          "indexed": true,
          "internalType": "address",
          "name": "beacon",
          "type": "address"
        }
      ],
      "name": "BeaconUpgraded",
      "type": "event"
    },
    {
      "anonymous": false,
      "inputs": [
        {
          "indexed": false,
          "internalType": "uint8",
          "name": "version",
          "type": "uint8"
        }
      ],
      "name": "Initialized",
      "type": "event"
    },
    {
      "anonymous": false,
      "inputs": [
        {
          "indexed": true,
          "internalType": "address",
          "name": "previousOwner",
          "type": "address"
        },
        {
          "indexed": true,
          "internalType": "address",
          "name": "newOwner",
          "type": "address"
        }
      ],
      "name": "OwnershipTransferred",
      "type": "event"
    },
    {
      "anonymous": false,
      "inputs": [
        {
          "indexed": false,
          "internalType": "uint256",
          "name": "proposalId",
          "type": "uint256"
        }
      ],
      "name": "ProposalApproved",
      "type": "event"
    },
    {
      "anonymous": false,
      "inputs": [
        {
          "indexed": false,
          "internalType": "uint256",
          "name": "proposalId",
          "type": "uint256"
        }
      ],
      "name": "ProposalCanceled",
      "type": "event"
    },
    {
      "anonymous": false,
      "inputs": [
        {
          "indexed": false,
          "internalType": "uint256",
          "name": "proposalId",
          "type": "uint256"
        },
        {
          "indexed": false,
          "internalType": "enum ConvictionVoting.ProposalType",
          "name": "proposalType",
          "type": "uint8"
        },
        {
          "indexed": false,
          "internalType": "address",
          "name": "target",
          "type": "address"
        },
        {
          "indexed": false,
          "internalType": "bytes",
          "name": "callData",
          "type": "bytes"
        },
        {
          "indexed": false,
          "internalType": "string",
          "name": "description",
          "type": "string"
        },
        {
          "indexed": false,
          "internalType": "uint256",
          "name": "expirationDate",
          "type": "uint256"
        },
        {
          "indexed": false,
          "internalType": "uint256",
          "name": "quorum",
          "type": "uint256"
        }
      ],
      "name": "ProposalCreated",
      "type": "event"
    },
    {
      "anonymous": false,
      "inputs": [
        {
          "indexed": false,
          "internalType": "uint256",
          "name": "proposalId",
          "type": "uint256"
        }
      ],
      "name": "ProposalDeleted",
      "type": "event"
    },
    {
      "anonymous": false,
      "inputs": [
        {
          "indexed": false,
          "internalType": "uint256",
          "name": "proposalId",
          "type": "uint256"
        }
      ],
      "name": "ProposalExecuted",
      "type": "event"
    },
    {
      "anonymous": false,
      "inputs": [
        {
          "indexed": false,
          "internalType": "uint256",
          "name": "proposalId",
          "type": "uint256"
        }
      ],
      "name": "ProposalExpired",
      "type": "event"
    },
    {
      "anonymous": false,
      "inputs": [
        {
          "indexed": false,
          "internalType": "uint256",
          "name": "newQuorum",
          "type": "uint256"
        }
      ],
      "name": "QuorumUpdated",
      "type": "event"
    },
    {
      "anonymous": false,
      "inputs": [
        {
          "indexed": true,
          "internalType": "address",
          "name": "implementation",
          "type": "address"
        }
      ],
      "name": "Upgraded",
      "type": "event"
    },
    {
      "anonymous": false,
      "inputs": [
        {
          "indexed": true,
          "internalType": "address",
          "name": "voter",
          "type": "address"
        },
        {
          "indexed": false,
          "internalType": "uint256",
          "name": "proposalId",
          "type": "uint256"
        },
        {
          "indexed": false,
          "internalType": "uint256",
          "name": "conviction",
          "type": "uint256"
        }
      ],
      "name": "VoteWithdrawn",
      "type": "event"
    },
    {
      "anonymous": false,
      "inputs": [
        {
          "indexed": true,
          "internalType": "address",
          "name": "voter",
          "type": "address"
        },
        {
          "indexed": false,
          "internalType": "uint256",
          "name": "proposalId",
          "type": "uint256"
        },
        {
          "indexed": false,
          "internalType": "uint256",
          "name": "weight",
          "type": "uint256"
        },
        {
          "indexed": false,
          "internalType": "uint256",
          "name": "conviction",
          "type": "uint256"
        }
      ],
      "name": "Voted",
      "type": "event"
    },
    {
      "inputs": [
        {
          "internalType": "uint256",
          "name": "_proposalId",
          "type": "uint256"
        }
      ],
      "name": "cancelProposal",
      "outputs": [],
      "stateMutability": "nonpayable",
      "type": "function"
    },
    {
      "inputs": [],
      "name": "convictionDecayRate",
      "outputs": [
        {
          "internalType": "uint256",
          "name": "",
          "type": "uint256"
        }
      ],
      "stateMutability": "view",
      "type": "function"
    },
    {
      "inputs": [],
      "name": "convictionGrowthRate",
      "outputs": [
        {
          "internalType": "uint256",
          "name": "",
          "type": "uint256"
        }
      ],
      "stateMutability": "view",
      "type": "function"
    },
    {
      "inputs": [
        {
          "internalType": "enum ConvictionVoting.ProposalType",
          "name": "_proposalType",
          "type": "uint8"
        },
        {
          "internalType": "address",
          "name": "_target",
          "type": "address"
        },
        {
          "internalType": "bytes",
          "name": "_callData",
          "type": "bytes"
        },
        {
          "internalType": "string",
          "name": "_description",
          "type": "string"
        },
        {
          "internalType": "uint256",
          "name": "_expirationDate",
          "type": "uint256"
        }
      ],
      "name": "createProposal",
      "outputs": [],
      "stateMutability": "nonpayable",
      "type": "function"
    },
    {
      "inputs": [
        {
          "internalType": "uint256",
          "name": "_proposalId",
          "type": "uint256"
        }
      ],
      "name": "deleteProposal",
      "outputs": [],
      "stateMutability": "nonpayable",
      "type": "function"
    },
    {
      "inputs": [
        {
          "internalType": "uint256",
          "name": "_proposalId",
          "type": "uint256"
        }
      ],
      "name": "executeProposal",
      "outputs": [],
      "stateMutability": "nonpayable",
      "type": "function"
    },
    {
      "inputs": [],
      "name": "getProposals",
      "outputs": [
        {
          "components": [
            {
              "internalType": "enum ConvictionVoting.ProposalType",
              "name": "proposalType",
              "type": "uint8"
            },
            {
              "internalType": "address",
              "name": "target",
              "type": "address"
            },
            {
              "internalType": "bytes",
              "name": "callData",
              "type": "bytes"
            },
            {
              "internalType": "string",
              "name": "description",
              "type": "string"
            },
            {
              "internalType": "uint256",
              "name": "votes",
              "type": "uint256"
            },
            {
              "internalType": "enum ConvictionVoting.ProposalStatus",
              "name": "status",
              "type": "uint8"
            },
            {
              "internalType": "uint256",
              "name": "expirationDate",
              "type": "uint256"
            },
            {
              "internalType": "address",
              "name": "proposer",
              "type": "address"
            },
            {
              "internalType": "uint256",
              "name": "quorum",
              "type": "uint256"
            }
          ],
          "internalType": "struct ConvictionVoting.Proposal[]",
          "name": "",
          "type": "tuple[]"
        }
      ],
      "stateMutability": "view",
      "type": "function"
    },
    {
      "inputs": [
        {
          "internalType": "address",
          "name": "_token",
          "type": "address"
        },
        {
          "internalType": "address",
          "name": "initialOwner",
          "type": "address"
        },
        {
          "internalType": "uint256",
          "name": "_initialQuorum",
          "type": "uint256"
        },
        {
          "internalType": "uint256",
          "name": "_convictionGrowthRate",
          "type": "uint256"
        },
        {
          "internalType": "uint256",
          "name": "_convictionDecayRate",
          "type": "uint256"
        }
      ],
      "name": "initialize",
      "outputs": [],
      "stateMutability": "nonpayable",
      "type": "function"
    },
    {
      "inputs": [],
      "name": "owner",
      "outputs": [
        {
          "internalType": "address",
          "name": "",
          "type": "address"
        }
      ],
      "stateMutability": "view",
      "type": "function"
    },
    {
      "inputs": [],
      "name": "proposalCount",
      "outputs": [
        {
          "internalType": "uint256",
          "name": "",
          "type": "uint256"
        }
      ],
      "stateMutability": "view",
      "type": "function"
    },
    {
      "inputs": [
        {
          "internalType": "uint256",
          "name": "",
          "type": "uint256"
        }
      ],
      "name": "proposals",
      "outputs": [
        {
          "internalType": "enum ConvictionVoting.ProposalType",
          "name": "proposalType",
          "type": "uint8"
        },
        {
          "internalType": "address",
          "name": "target",
          "type": "address"
        },
        {
          "internalType": "bytes",
          "name": "callData",
          "type": "bytes"
        },
        {
          "internalType": "string",
          "name": "description",
          "type": "string"
        },
        {
          "internalType": "uint256",
          "name": "votes",
          "type": "uint256"
        },
        {
          "internalType": "enum ConvictionVoting.ProposalStatus",
          "name": "status",
          "type": "uint8"
        },
        {
          "internalType": "uint256",
          "name": "expirationDate",
          "type": "uint256"
        },
        {
          "internalType": "address",
          "name": "proposer",
          "type": "address"
        },
        {
          "internalType": "uint256",
          "name": "quorum",
          "type": "uint256"
        }
      ],
      "stateMutability": "view",
      "type": "function"
    },
    {
      "inputs": [],
      "name": "proxiableUUID",
      "outputs": [
        {
          "internalType": "bytes32",
          "name": "",
          "type": "bytes32"
        }
      ],
      "stateMutability": "view",
      "type": "function"
    },
    {
      "inputs": [],
      "name": "quorum",
      "outputs": [
        {
          "internalType": "uint256",
          "name": "",
          "type": "uint256"
        }
      ],
      "stateMutability": "view",
      "type": "function"
    },
    {
      "inputs": [],
      "name": "renounceOwnership",
      "outputs": [],
      "stateMutability": "nonpayable",
      "type": "function"
    },
    {
      "inputs": [
        {
          "internalType": "uint256",
          "name": "_quorum",
          "type": "uint256"
        }
      ],
      "name": "setQuorum",
      "outputs": [],
      "stateMutability": "nonpayable",
      "type": "function"
    },
    {
      "inputs": [],
      "name": "token",
      "outputs": [
        {
          "internalType": "contract ERC20Upgradeable",
          "name": "",
          "type": "address"
        }
      ],
      "stateMutability": "view",
      "type": "function"
    },
    {
      "inputs": [
        {
          "internalType": "address",
          "name": "newOwner",
          "type": "address"
        }
      ],
      "name": "transferOwnership",
      "outputs": [],
      "stateMutability": "nonpayable",
      "type": "function"
    },
    {
      "inputs": [
        {
          "internalType": "address",
          "name": "newImplementation",
          "type": "address"
        }
      ],
      "name": "upgradeTo",
      "outputs": [],
      "stateMutability": "nonpayable",
      "type": "function"
    },
    {
      "inputs": [
        {
          "internalType": "address",
          "name": "newImplementation",
          "type": "address"
        },
        {
          "internalType": "bytes",
          "name": "data",
          "type": "bytes"
        }
      ],
      "name": "upgradeToAndCall",
      "outputs": [],
      "stateMutability": "payable",
      "type": "function"
    },
    {
      "inputs": [
        {
          "internalType": "address",
          "name": "",
          "type": "address"
        },
        {
          "internalType": "uint256",
          "name": "",
          "type": "uint256"
        }
      ],
      "name": "userVotes",
      "outputs": [
        {
          "internalType": "uint256",
          "name": "proposalId",
          "type": "uint256"
        },
        {
          "internalType": "uint256",
          "name": "weight",
          "type": "uint256"
        },
        {
          "internalType": "uint256",
          "name": "timestamp",
          "type": "uint256"
        }
      ],
      "stateMutability": "view",
      "type": "function"
    },
    {
      "inputs": [
        {
          "internalType": "uint256",
          "name": "_proposalId",
          "type": "uint256"
        },
        {
          "internalType": "uint256",
          "name": "_weight",
          "type": "uint256"
        }
      ],
      "name": "vote",
      "outputs": [],
      "stateMutability": "nonpayable",
      "type": "function"
    },
    {
      "inputs": [
        {
          "internalType": "uint256",
          "name": "_voteIndex",
          "type": "uint256"
        }
      ],
      "name": "withdrawVote",
      "outputs": [],
      "stateMutability": "nonpayable",
      "type": "function"
    }
  ],
  "bytecode": "0x60a06040523060805234801561001457600080fd5b50608051612ede61004c60003960008181610aa101528181610ae101528181610b8001528181610bc00152610c530152612ede6000f3fe6080604052600436106101355760003560e01c806387a2301e116100ab578063c1ba4e591161006f578063c1ba4e5914610356578063d13f90b414610376578063da35c66414610396578063e0a8f6f5146103ab578063f2fde38b146103cb578063fc0c546a146103eb57600080fd5b806387a2301e146102895780638b3511f7146102a95780638da5cb5b146102e45780639eb9341d14610316578063b384abef1461033657600080fd5b806339428bc9116100fd57806339428bc9146101f45780634f1ef2861461020a57806352d1902d1461021d57806362564c4814610232578063715018a6146102545780638259d5531461026957600080fd5b8063013cf08b1461013a5780630d61b519146101785780630ea272091461019a5780631703a018146101be5780633659cfe6146101d4575b600080fd5b34801561014657600080fd5b5061015a610155366004612408565b61040b565b60405161016f999897969594939291906124ab565b60405180910390f35b34801561018457600080fd5b50610198610193366004612408565b610591565b005b3480156101a657600080fd5b506101b060cc5481565b60405190815260200161016f565b3480156101ca57600080fd5b506101b060ca5481565b3480156101e057600080fd5b506101986101ef366004612540565b610a97565b34801561020057600080fd5b506101b060cb5481565b61019861021836600461257a565b610b76565b34801561022957600080fd5b506101b0610c46565b34801561023e57600080fd5b50610247610cf9565b60405161016f919061263e565b34801561026057600080fd5b50610198610f2b565b34801561027557600080fd5b50610198610284366004612408565b610f3f565b34801561029557600080fd5b506101986102a4366004612408565b6110d2565b3480156102b557600080fd5b506102c96102c4366004612731565b611380565b6040805193845260208401929092529082015260600161016f565b3480156102f057600080fd5b506097546001600160a01b03165b6040516001600160a01b03909116815260200161016f565b34801561032257600080fd5b506101986103313660046127a6565b6113c2565b34801561034257600080fd5b50610198610351366004612848565b6117e1565b34801561036257600080fd5b50610198610371366004612408565b611b0d565b34801561038257600080fd5b5061019861039136600461286a565b611b50565b3480156103a257600080fd5b5060cd546101b0565b3480156103b757600080fd5b506101986103c6366004612408565b611ca1565b3480156103d757600080fd5b506101986103e6366004612540565b611e49565b3480156103f757600080fd5b5060c9546102fe906001600160a01b031681565b60cd818154811061041b57600080fd5b60009182526020909120600890910201805460018201805460ff831694506101009092046001600160a01b03169291610453906128bb565b80601f016020809104026020016040519081016040528092919081815260200182805461047f906128bb565b80156104cc5780601f106104a1576101008083540402835291602001916104cc565b820191906000526020600020905b8154815290600101906020018083116104af57829003601f168201915b5050505050908060020180546104e1906128bb565b80601f016020809104026020016040519081016040528092919081815260200182805461050d906128bb565b801561055a5780601f1061052f5761010080835404028352916020019161055a565b820191906000526020600020905b81548152906001019060200180831161053d57829003601f168201915b5050505060038301546004840154600585015460068601546007909601549495929460ff9092169350916001600160a01b03169089565b60cd5481106105bb5760405162461bcd60e51b81526004016105b2906128f5565b60405180910390fd5b600060cd82815481106105d0576105d061291f565b600091825260209091206008909102019050600160048083015460ff16908111156105fd576105fd612421565b0361064a5760405162461bcd60e51b815260206004820152601960248201527f50726f706f73616c20616c72656164792065786563757465640000000000000060448201526064016105b2565b600360048083015460ff169081111561066557610665612421565b1480610687575060048181015460ff168181111561068557610685612421565b145b156106d9578060070154816003015410156106d95760405162461bcd60e51b8152602060048201526012602482015271145d5bdc9d5b481b9bdd081c995858da195960721b60448201526064016105b2565b600060048083015460ff16908111156106f4576106f4612421565b148015610705575080600501544210155b1561077557806007015481600301541061072e576004818101805460ff19169091179055610775565b60048101805460ff191660031790556040518281527f88e53c486703527139dfc8d97a1e559d9bd93d3f9d52cda4e06564111e7a2643906020015b60405180910390a15050565b60048181015460ff168181111561078e5761078e612421565b146107d35760405162461bcd60e51b8152602060048201526015602482015274141c9bdc1bdcd85b081b9bdd08185c1c1c9bdd9959605a1b60448201526064016105b2565b805460405160009161010090046001600160a01b0316906107f8906001850190612935565b6000604051808303816000865af19150503d8060008114610835576040519150601f19603f3d011682016040523d82523d6000602084013e61083a565b606091505b505090508061088b5760405162461bcd60e51b815260206004820152601960248201527f50726f706f73616c20657865637574696f6e206661696c65640000000000000060448201526064016105b2565b60048201805460ff19166001908117909155825460ff16818111156108b2576108b2612421565b036109dc576000808360010180546108c9906128bb565b80601f01602080910402602001604051908101604052809291908181526020018280546108f5906128bb565b80156109425780601f1061091757610100808354040283529160200191610942565b820191906000526020600020905b81548152906001019060200180831161092557829003601f168201915b505050505080602001905181019061095a91906129ab565b60c95460405163a9059cbb60e01b81526001600160a01b03808516600483015260248201849052939550919350919091169063a9059cbb906044016020604051808303816000875af11580156109b4573d6000803e3d6000fd5b505050506040513d601f19601f820116820180604052508101906109d891906129d9565b5050505b60c954600683015460405163a9059cbb60e01b81526001600160a01b039182166004820152670de0b6b3a7640000602482015291169063a9059cbb906044016020604051808303816000875af1158015610a3a573d6000803e3d6000fd5b505050506040513d601f19601f82011682018060405250810190610a5e91906129d9565b506040518381527f712ae1383f79ac853f8d882153778e0260ef8f03b504e2866e0593e04d2b291f9060200160405180910390a1505050565b6001600160a01b037f0000000000000000000000000000000000000000000000000000000000000000163003610adf5760405162461bcd60e51b81526004016105b2906129fb565b7f00000000000000000000000000000000000000000000000000000000000000006001600160a01b0316610b28600080516020612e62833981519152546001600160a01b031690565b6001600160a01b031614610b4e5760405162461bcd60e51b81526004016105b290612a47565b610b5781611ebf565b60408051600080825260208201909252610b7391839190611ec7565b50565b6001600160a01b037f0000000000000000000000000000000000000000000000000000000000000000163003610bbe5760405162461bcd60e51b81526004016105b2906129fb565b7f00000000000000000000000000000000000000000000000000000000000000006001600160a01b0316610c07600080516020612e62833981519152546001600160a01b031690565b6001600160a01b031614610c2d5760405162461bcd60e51b81526004016105b290612a47565b610c3682611ebf565b610c4282826001611ec7565b5050565b6000306001600160a01b037f00000000000000000000000000000000000000000000000000000000000000001614610ce65760405162461bcd60e51b815260206004820152603860248201527f555550535570677261646561626c653a206d757374206e6f742062652063616c60448201527f6c6564207468726f7567682064656c656761746563616c6c000000000000000060648201526084016105b2565b50600080516020612e6283398151915290565b606060cd805480602002602001604051908101604052809291908181526020016000905b82821015610f2257600084815260209020604080516101208101909152600884029091018054829060ff166001811115610d5957610d59612421565b6001811115610d6a57610d6a612421565b8152815461010090046001600160a01b03166020820152600182018054604090920191610d96906128bb565b80601f0160208091040260200160405190810160405280929190818152602001828054610dc2906128bb565b8015610e0f5780601f10610de457610100808354040283529160200191610e0f565b820191906000526020600020905b815481529060010190602001808311610df257829003601f168201915b50505050508152602001600282018054610e28906128bb565b80601f0160208091040260200160405190810160405280929190818152602001828054610e54906128bb565b8015610ea15780601f10610e7657610100808354040283529160200191610ea1565b820191906000526020600020905b815481529060010190602001808311610e8457829003601f168201915b50505091835250506003820154602082015260048083015460409092019160ff1690811115610ed257610ed2612421565b6004811115610ee357610ee3612421565b8152600582015460208083019190915260068301546001600160a01b031660408301526007909201546060909101529082526001929092019101610d1d565b50505050905090565b610f33612037565b610f3d6000612091565b565b60cd548110610f605760405162461bcd60e51b81526004016105b2906128f5565b600060cd8281548110610f7557610f7561291f565b600091825260209091206006600890920201908101549091506001600160a01b03163314610fd65760405162461bcd60e51b815260206004820152600e60248201526d139bdd08185d5d1a1bdc9a5e995960921b60448201526064016105b2565b600060048083015460ff1690811115610ff157610ff1612421565b1461100e5760405162461bcd60e51b81526004016105b290612a93565b6004818101805460ff1916600217905560c954600683015460405163a9059cbb60e01b81526001600160a01b0391821693810193909352670de0b6b3a76400006024840152169063a9059cbb906044016020604051808303816000875af115801561107d573d6000803e3d6000fd5b505050506040513d601f19601f820116820180604052508101906110a191906129d9565b506040518281527f61c0d93dc2b610877e420b107c8d12e9185e46e04a505da758cc7f7329ae545f90602001610769565b33600090815260ce602052604090205481106111255760405162461bcd60e51b8152602060048201526012602482015271092dcecc2d8d2c840ecdee8ca40d2dcc8caf60731b60448201526064016105b2565b33600090815260ce602052604081208054839081106111465761114661291f565b90600052602060002090600302019050600060cd82600001548154811061116f5761116f61291f565b906000526020600020906008020190506000429050600061119984600101548560020154846120e3565b90506000606460cc5460646111ae9190612ad6565b6111b89084612ae9565b6111c29190612b00565b9050808460030160008282546111d89190612ad6565b909155505060018086015433600090815260ce602052604090208054919290916112029190612ad6565b815481106112125761121261291f565b906000526020600020906003020160ce6000336001600160a01b03166001600160a01b0316815260200190815260200160002088815481106112565761125661291f565b60009182526020808320845460039093020191825560018085015490830155600293840154939091019290925533815260ce9091526040902080548061129e5761129e612b22565b600082815260208120600360001993909301928302018181556001810182905560020155905560c95460405163a9059cbb60e01b8152336004820152602481018390526001600160a01b039091169063a9059cbb906044016020604051808303816000875af1158015611315573d6000803e3d6000fd5b505050506040513d601f19601f8201168201806040525081019061133991906129d9565b508554604080519182526020820184905233917f58c75f3548476ce3196d3b0afeca83445eea19d6e200490b5e8e770cee4edb49910160405180910390a250505050505050565b60ce602052816000526040600020818154811061139c57600080fd5b600091825260209091206003909102018054600182015460029092015490935090915083565b60c9546040516370a0823160e01b8152336004820152670de0b6b3a7640000916001600160a01b0316906370a0823190602401602060405180830381865afa158015611412573d6000803e3d6000fd5b505050506040513d601f19601f820116820180604052508101906114369190612b38565b10156114845760405162461bcd60e51b815260206004820181905260248201527f496e73756666696369656e74204c4f434b4520746f6b656e2062616c616e636560448201526064016105b2565b60c9546040516323b872dd60e01b8152336004820152306024820152670de0b6b3a764000060448201526000916001600160a01b0316906323b872dd906064016020604051808303816000875af11580156114e3573d6000803e3d6000fd5b505050506040513d601f19601f8201168201806040525081019061150791906129d9565b90508061154e5760405162461bcd60e51b8152602060048201526015602482015274151bdad95b881d1c985b9cd9995c8819985a5b1959605a1b60448201526064016105b2565b81158061155a57504282115b6115a65760405162461bcd60e51b815260206004820152601760248201527f496e76616c69642065787069726174696f6e206461746500000000000000000060448201526064016105b2565b6000671bc16d674ec80000905060cd6040518061012001604052808b60018111156115d3576115d3612421565b81526020018a6001600160a01b0316815260200189898080601f016020809104026020016040519081016040528093929190818152602001838380828437600092019190915250505090825250604080516020601f8a018190048102820181019092528881529181019190899089908190840183828082843760009201829052509385525050506020808301829052604083018290526060830188905233608084015260a09092018590528354600180820186559482529190208251600890920201805492939092839160ff199091169083818111156116b5576116b5612421565b0217905550602082015181546001600160a01b0390911661010002610100600160a81b0319909116178155604082015160018201906116f49082612b97565b50606082015160028201906117099082612b97565b506080820151816003015560a08201518160040160006101000a81548160ff0219169083600481111561173e5761173e612421565b021790555060c0820151600582015560e08201516006820180546001600160a01b0319166001600160a01b039092169190911790556101009091015160079091015560cd547f509d2c2956155b7c5e039a35c4780d065dbb10510d22d771ef09fdeba7dd379d906117b190600190612ad6565b8a8a8a8a8a8a8a896040516117ce99989796959493929190612c80565b60405180910390a1505050505050505050565b60cd5482106118025760405162461bcd60e51b81526004016105b2906128f5565b600060cd83815481106118175761181761291f565b600091825260208220600890910201915060048083015460ff169081111561184157611841612421565b1461185e5760405162461bcd60e51b81526004016105b290612a93565b60018210156118af5760405162461bcd60e51b815260206004820152601b60248201527f4d757374207374616b65206174206c65617374203120746f6b656e000000000060448201526064016105b2565b600581015415806118c35750428160050154115b6119025760405162461bcd60e51b815260206004820152601060248201526f141c9bdc1bdcd85b08195e1c1a5c995960821b60448201526064016105b2565b60c9546040516370a0823160e01b815233600482015283916001600160a01b0316906370a0823190602401602060405180830381865afa15801561194a573d6000803e3d6000fd5b505050506040513d601f19601f8201168201806040525081019061196e9190612b38565b10156119c75760405162461bcd60e51b815260206004820152602260248201527f496e73756666696369656e7420746f6b656e2062616c616e636520746f20766f604482015261746560f01b60648201526084016105b2565b60c9546040516323b872dd60e01b8152336004820152306024820152604481018490526001600160a01b03909116906323b872dd906064016020604051808303816000875af1158015611a1e573d6000803e3d6000fd5b505050506040513d601f19601f82011682018060405250810190611a4291906129d9565b50426000611a518483806120e3565b33600090815260ce6020908152604080832081516060810183528a81528084018a8152928101888152825460018181018555938752948620915160039586029092019182559251918101919091559051600290910155850180549293508392909190611abe908490612ce4565b9091555050604080518681526020810186905290810182905233907fc32b42768a47a585121e9b8d7a2ab9d3f34c326a192dee11ee1732e3d18313f39060600160405180910390a25050505050565b611b15612037565b60ca8190556040518181527ff18f88786aae85a652aadb99a82462616489a33370c9bcc7b245906812ef7cd19060200160405180910390a150565b600054610100900460ff1615808015611b705750600054600160ff909116105b80611b8a5750303b158015611b8a575060005460ff166001145b611bed5760405162461bcd60e51b815260206004820152602e60248201527f496e697469616c697a61626c653a20636f6e747261637420697320616c72656160448201526d191e481a5b9a5d1a585b1a5e995960921b60648201526084016105b2565b6000805460ff191660011790558015611c10576000805461ff0019166101001790555b611c1861212a565b611c20612159565b60c980546001600160a01b0319166001600160a01b03881617905560ca84905560cb83905560cc829055611c5385611e49565b8015611c99576000805461ff0019169055604051600181527f7f26b83ff96e1f2b6a682f133852f6798a09c465da95921460cefb38474024989060200160405180910390a15b505050505050565b60cd548110611cc25760405162461bcd60e51b81526004016105b2906128f5565b600060cd8281548110611cd757611cd761291f565b600091825260209091206006600890920201908101549091506001600160a01b0316331480611d1057506097546001600160a01b031633145b611d4d5760405162461bcd60e51b815260206004820152600e60248201526d139bdd08185d5d1a1bdc9a5e995960921b60448201526064016105b2565b600060048083015460ff1690811115611d6857611d68612421565b14611d855760405162461bcd60e51b81526004016105b290612a93565b6004818101805460ff1916600217905560c954600683015460405163a9059cbb60e01b81526001600160a01b0391821693810193909352670de0b6b3a76400006024840152169063a9059cbb906044016020604051808303816000875af1158015611df4573d6000803e3d6000fd5b505050506040513d601f19601f82011682018060405250810190611e1891906129d9565b506040518281527f789cf55be980739dad1d0699b93b58e806b51c9d96619bfa8fe0a28abaa7b30c90602001610769565b611e51612037565b6001600160a01b038116611eb65760405162461bcd60e51b815260206004820152602660248201527f4f776e61626c653a206e6577206f776e657220697320746865207a65726f206160448201526564647265737360d01b60648201526084016105b2565b610b7381612091565b610b73612037565b7f4910fdfa16fed3260ed0e7147f7cc6da11a60208b5b9406d12a635614ffd91435460ff1615611eff57611efa83612180565b505050565b826001600160a01b03166352d1902d6040518163ffffffff1660e01b8152600401602060405180830381865afa925050508015611f59575060408051601f3d908101601f19168201909252611f5691810190612b38565b60015b611fbc5760405162461bcd60e51b815260206004820152602e60248201527f45524331393637557067726164653a206e657720696d706c656d656e7461746960448201526d6f6e206973206e6f74205555505360901b60648201526084016105b2565b600080516020612e62833981519152811461202b5760405162461bcd60e51b815260206004820152602960248201527f45524331393637557067726164653a20756e737570706f727465642070726f786044820152681a58589b195555525160ba1b60648201526084016105b2565b50611efa83838361221c565b6097546001600160a01b03163314610f3d5760405162461bcd60e51b815260206004820181905260248201527f4f776e61626c653a2063616c6c6572206973206e6f7420746865206f776e657260448201526064016105b2565b609780546001600160a01b038381166001600160a01b0319831681179093556040519116919082907f8be0079c531659141344cd1fd0a4f28419497f9722a3daafe3b4186f6b6457e090600090a35050565b6000806120f08484612ad6565b905080606460cb546121029190612b00565b61210d906001612ce4565b6121179190612ddb565b6121219086612ae9565b95945050505050565b600054610100900460ff166121515760405162461bcd60e51b81526004016105b290612de7565b610f3d612247565b600054610100900460ff16610f3d5760405162461bcd60e51b81526004016105b290612de7565b6001600160a01b0381163b6121ed5760405162461bcd60e51b815260206004820152602d60248201527f455243313936373a206e657720696d706c656d656e746174696f6e206973206e60448201526c1bdd08184818dbdb9d1c9858dd609a1b60648201526084016105b2565b600080516020612e6283398151915280546001600160a01b0319166001600160a01b0392909216919091179055565b61222583612277565b6000825111806122325750805b15611efa5761224183836122b7565b50505050565b600054610100900460ff1661226e5760405162461bcd60e51b81526004016105b290612de7565b610f3d33612091565b61228081612180565b6040516001600160a01b038216907fbc7cd75a20ee27fd9adebab32041f755214dbc6bffa90cc0225b39da2e5c2d3b90600090a250565b60606122dc8383604051806060016040528060278152602001612e82602791396122e5565b90505b92915050565b6060600080856001600160a01b0316856040516123029190612e32565b600060405180830381855af49150503d806000811461233d576040519150601f19603f3d011682016040523d82523d6000602084013e612342565b606091505b50915091506123538683838761235d565b9695505050505050565b606083156123cc5782516000036123c5576001600160a01b0385163b6123c55760405162461bcd60e51b815260206004820152601d60248201527f416464726573733a2063616c6c20746f206e6f6e2d636f6e747261637400000060448201526064016105b2565b50816123d6565b6123d683836123de565b949350505050565b8151156123ee5781518083602001fd5b8060405162461bcd60e51b81526004016105b29190612e4e565b60006020828403121561241a57600080fd5b5035919050565b634e487b7160e01b600052602160045260246000fd5b6002811061244757612447612421565b9052565b60005b8381101561246657818101518382015260200161244e565b50506000910152565b6000815180845261248781602086016020860161244b565b601f01601f19169290920160200192915050565b6005811061244757612447612421565b60006101206124ba838d612437565b6001600160a01b038b81166020850152604084018290526124dd8285018c61246f565b915083820360608501526124f1828b61246f565b925088608085015261250660a085018961249b565b8660c085015280861660e08501525050826101008301529a9950505050505050505050565b6001600160a01b0381168114610b7357600080fd5b60006020828403121561255257600080fd5b813561255d8161252b565b9392505050565b634e487b7160e01b600052604160045260246000fd5b6000806040838503121561258d57600080fd5b82356125988161252b565b9150602083013567ffffffffffffffff808211156125b557600080fd5b818501915085601f8301126125c957600080fd5b8135818111156125db576125db612564565b604051601f8201601f19908116603f0116810190838211818310171561260357612603612564565b8160405282815288602084870101111561261c57600080fd5b8260208601602083013760006020848301015280955050505050509250929050565b60006020808301818452808551808352604092508286019150828160051b87010184880160005b8381101561272357603f198984030185528151610120612686858351612437565b888201516001600160a01b0316858a0152878201518886018290526126ad8287018261246f565b915050606080830151868303828801526126c7838261246f565b92505050608080830151818701525060a0808301516126e88288018261249b565b505060c0828101519086015260e0808301516001600160a01b0316908601526101009182015191909401529386019390860190600101612665565b509098975050505050505050565b6000806040838503121561274457600080fd5b823561274f8161252b565b946020939093013593505050565b60008083601f84011261276f57600080fd5b50813567ffffffffffffffff81111561278757600080fd5b60208301915083602082850101111561279f57600080fd5b9250929050565b600080600080600080600060a0888a0312156127c157600080fd5b8735600281106127d057600080fd5b965060208801356127e08161252b565b9550604088013567ffffffffffffffff808211156127fd57600080fd5b6128098b838c0161275d565b909750955060608a013591508082111561282257600080fd5b5061282f8a828b0161275d565b989b979a50959894979596608090950135949350505050565b6000806040838503121561285b57600080fd5b50508035926020909101359150565b600080600080600060a0868803121561288257600080fd5b853561288d8161252b565b9450602086013561289d8161252b565b94979496505050506040830135926060810135926080909101359150565b600181811c908216806128cf57607f821691505b6020821081036128ef57634e487b7160e01b600052602260045260246000fd5b50919050565b60208082526010908201526f125b9d985b1a59081c1c9bdc1bdcd85b60821b604082015260600190565b634e487b7160e01b600052603260045260246000fd5b6000808354612943816128bb565b6001828116801561295b57600181146129705761299f565b60ff198416875282151583028701945061299f565b8760005260208060002060005b858110156129965781548a82015290840190820161297d565b50505082870194505b50929695505050505050565b600080604083850312156129be57600080fd5b82516129c98161252b565b6020939093015192949293505050565b6000602082840312156129eb57600080fd5b8151801515811461255d57600080fd5b6020808252602c908201527f46756e6374696f6e206d7573742062652063616c6c6564207468726f7567682060408201526b19195b1959d85d1958d85b1b60a21b606082015260800190565b6020808252602c908201527f46756e6374696f6e206d7573742062652063616c6c6564207468726f7567682060408201526b6163746976652070726f787960a01b606082015260800190565b60208082526013908201527250726f706f73616c206e6f742061637469766560681b604082015260600190565b634e487b7160e01b600052601160045260246000fd5b818103818111156122df576122df612ac0565b80820281158282048414176122df576122df612ac0565b600082612b1d57634e487b7160e01b600052601260045260246000fd5b500490565b634e487b7160e01b600052603160045260246000fd5b600060208284031215612b4a57600080fd5b5051919050565b601f821115611efa57600081815260208120601f850160051c81016020861015612b785750805b601f850160051c820191505b81811015611c9957828155600101612b84565b815167ffffffffffffffff811115612bb157612bb1612564565b612bc581612bbf84546128bb565b84612b51565b602080601f831160018114612bfa5760008415612be25750858301515b600019600386901b1c1916600185901b178555611c99565b600085815260208120601f198616915b82811015612c2957888601518255948401946001909101908401612c0a565b5085821015612c475787850151600019600388901b60f8161c191681555b5050505050600190811b01905550565b81835281816020850137506000828201602090810191909152601f909101601f19169091010190565b898152612c90602082018a612437565b6001600160a01b038816604082015260e060608201819052600090612cb8908301888a612c57565b8281036080840152612ccb818789612c57565b60a0840195909552505060c00152979650505050505050565b808201808211156122df576122df612ac0565b600181815b80851115612d32578160001904821115612d1857612d18612ac0565b80851615612d2557918102915b93841c9390800290612cfc565b509250929050565b600082612d49575060016122df565b81612d56575060006122df565b8160018114612d6c5760028114612d7657612d92565b60019150506122df565b60ff841115612d8757612d87612ac0565b50506001821b6122df565b5060208310610133831016604e8410600b8410161715612db5575081810a6122df565b612dbf8383612cf7565b8060001904821115612dd357612dd3612ac0565b029392505050565b60006122dc8383612d3a565b6020808252602b908201527f496e697469616c697a61626c653a20636f6e7472616374206973206e6f74206960408201526a6e697469616c697a696e6760a81b606082015260800190565b60008251612e4481846020870161244b565b9190910192915050565b6020815260006122dc602083018461246f56fe360894a13ba1a3210667c828492db98dca3e2076cc3735a920a3ca505d382bbc416464726573733a206c6f772d6c6576656c2064656c65676174652063616c6c206661696c6564a26469706673582212202089d210310e1424ddf333ff101026efe3effccb238ca091d5c65aee7c1e8c3a64736f6c63430008110033",
  "linkReferences": {},
  "deployedLinkReferences": {}
}