{
  "_format": "hh-sol-artifact-1",
  "contractName": "Token",
  "sourceName": "contracts/Token.sol",
  "abi": [
    {
      "anonymous": false,
      "inputs": [
        {
          "indexed": true,
          "internalType": "address",
          "name": "owner",
          "type": "address"
        },
        {
          "indexed": true,
          "internalType": "address",
          "name": "spender",
          "type": "address"
        },
        {
          "indexed": false,
          "internalType": "uint256",
          "name": "value",
          "type": "uint256"
        }
      ],
      "name": "Approval",
      "type": "event"
    },
    {
      "anonymous": false,
      "inputs": [
        {
          "indexed": false,
          "internalType": "uint8",
          "name": "version",
          "type": "uint8"
        }
      ],
      "name": "Initialized",
      "type": "event"
    },
    {
      "anonymous": false,
      "inputs": [
        {
          "indexed": true,
          "internalType": "address",
          "name": "burner",
          "type": "address"
        },
        {
          "indexed": false,
          "internalType": "uint256",
          "name": "amount",
          "type": "uint256"
        }
      ],
      "name": "TokensBurned",
      "type": "event"
    },
    {
      "anonymous": false,
      "inputs": [
        {
          "indexed": true,
          "internalType": "address",
          "name": "to",
          "type": "address"
        },
        {
          "indexed": false,
          "internalType": "uint256",
          "name": "amount",
          "type": "uint256"
        }
      ],
      "name": "TokensMinted",
      "type": "event"
    },
    {
      "anonymous": false,
      "inputs": [
        {
          "indexed": true,
          "internalType": "address",
          "name": "from",
          "type": "address"
        },
        {
          "indexed": true,
          "internalType": "address",
          "name": "to",
          "type": "address"
        },
        {
          "indexed": false,
          "internalType": "uint256",
          "name": "value",
          "type": "uint256"
        }
      ],
      "name": "Transfer",
      "type": "event"
    },
    {
      "inputs": [
        {
          "internalType": "address",
          "name": "owner",
          "type": "address"
        },
        {
          "internalType": "address",
          "name": "spender",
          "type": "address"
        }
      ],
      "name": "allowance",
      "outputs": [
        {
          "internalType": "uint256",
          "name": "",
          "type": "uint256"
        }
      ],
      "stateMutability": "view",
      "type": "function"
    },
    {
      "inputs": [
        {
          "internalType": "address",
          "name": "spender",
          "type": "address"
        },
        {
          "internalType": "uint256",
          "name": "amount",
          "type": "uint256"
        }
      ],
      "name": "approve",
      "outputs": [
        {
          "internalType": "bool",
          "name": "",
          "type": "bool"
        }
      ],
      "stateMutability": "nonpayable",
      "type": "function"
    },
    {
      "inputs": [
        {
          "internalType": "address",
          "name": "account",
          "type": "address"
        }
      ],
      "name": "balanceOf",
      "outputs": [
        {
          "internalType": "uint256",
          "name": "",
          "type": "uint256"
        }
      ],
      "stateMutability": "view",
      "type": "function"
    },
    {
      "inputs": [
        {
          "internalType": "uint256",
          "name": "amount",
          "type": "uint256"
        }
      ],
      "name": "burn",
      "outputs": [],
      "stateMutability": "nonpayable",
      "type": "function"
    },
    {
      "inputs": [],
      "name": "capacitySupply",
      "outputs": [
        {
          "internalType": "uint256",
          "name": "",
          "type": "uint256"
        }
      ],
      "stateMutability": "view",
      "type": "function"
    },
    {
      "inputs": [],
      "name": "decimals",
      "outputs": [
        {
          "internalType": "uint8",
          "name": "",
          "type": "uint8"
        }
      ],
      "stateMutability": "view",
      "type": "function"
    },
    {
      "inputs": [
        {
          "internalType": "address",
          "name": "spender",
          "type": "address"
        },
        {
          "internalType": "uint256",
          "name": "subtractedValue",
          "type": "uint256"
        }
      ],
      "name": "decreaseAllowance",
      "outputs": [
        {
          "internalType": "bool",
          "name": "",
          "type": "bool"
        }
      ],
      "stateMutability": "nonpayable",
      "type": "function"
    },
    {
      "inputs": [
        {
          "internalType": "address",
          "name": "spender",
          "type": "address"
        },
        {
          "internalType": "uint256",
          "name": "addedValue",
          "type": "uint256"
        }
      ],
      "name": "increaseAllowance",
      "outputs": [
        {
          "internalType": "bool",
          "name": "",
          "type": "bool"
        }
      ],
      "stateMutability": "nonpayable",
      "type": "function"
    },
    {
      "inputs": [
        {
          "internalType": "address",
          "name": "initialOwner",
          "type": "address"
        },
        {
          "internalType": "uint256",
          "name": "maxCapacitySupply",
          "type": "uint256"
        },
        {
          "internalType": "uint256",
          "name": "initialSupply",
          "type": "uint256"
        }
      ],
      "name": "initialize",
      "outputs": [],
      "stateMutability": "nonpayable",
      "type": "function"
    },
    {
      "inputs": [
        {
          "internalType": "address",
          "name": "to",
          "type": "address"
        },
        {
          "internalType": "uint256",
          "name": "amount",
          "type": "uint256"
        }
      ],
      "name": "mint",
      "outputs": [],
      "stateMutability": "nonpayable",
      "type": "function"
    },
    {
      "inputs": [],
      "name": "name",
      "outputs": [
        {
          "internalType": "string",
          "name": "",
          "type": "string"
        }
      ],
      "stateMutability": "view",
      "type": "function"
    },
    {
      "inputs": [],
      "name": "owner",
      "outputs": [
        {
          "internalType": "address",
          "name": "",
          "type": "address"
        }
      ],
      "stateMutability": "view",
      "type": "function"
    },
    {
      "inputs": [],
      "name": "symbol",
      "outputs": [
        {
          "internalType": "string",
          "name": "",
          "type": "string"
        }
      ],
      "stateMutability": "view",
      "type": "function"
    },
    {
      "inputs": [],
      "name": "totalSupply",
      "outputs": [
        {
          "internalType": "uint256",
          "name": "",
          "type": "uint256"
        }
      ],
      "stateMutability": "view",
      "type": "function"
    },
    {
      "inputs": [
        {
          "internalType": "address",
          "name": "to",
          "type": "address"
        },
        {
          "internalType": "uint256",
          "name": "amount",
          "type": "uint256"
        }
      ],
      "name": "transfer",
      "outputs": [
        {
          "internalType": "bool",
          "name": "",
          "type": "bool"
        }
      ],
      "stateMutability": "nonpayable",
      "type": "function"
    },
    {
      "inputs": [
        {
          "internalType": "address",
          "name": "from",
          "type": "address"
        },
        {
          "internalType": "address",
          "name": "to",
          "type": "address"
        },
        {
          "internalType": "uint256",
          "name": "amount",
          "type": "uint256"
        }
      ],
      "name": "transferFrom",
      "outputs": [
        {
          "internalType": "bool",
          "name": "",
          "type": "bool"
        }
      ],
      "stateMutability": "nonpayable",
      "type": "function"
    }
  ],
  "bytecode": "0x608060405234801561001057600080fd5b50611492806100206000396000f3fe608060405234801561001057600080fd5b50600436106101005760003560e01c806342966c681161009757806395d89b411161006657806395d89b4114610214578063a457c2d71461021c578063a9059cbb1461022f578063dd62ed3e1461024257600080fd5b806342966c68146101aa57806370a08231146101bd5780637a1ac61e146101e65780638da5cb5b146101f957600080fd5b806323b872dd116100d357806323b872dd14610160578063313ce56714610173578063395093511461018257806340c10f191461019557600080fd5b806306fdde0314610105578063095ea7b31461012357806318160ddd146101465780631934b55814610158575b600080fd5b61010d610255565b60405161011a919061100f565b60405180910390f35b610136610131366004611079565b6102e7565b604051901515815260200161011a565b6035545b60405190815260200161011a565b60975461014a565b61013661016e3660046110a3565b610301565b6040516012815260200161011a565b610136610190366004611079565b610325565b6101a86101a3366004611079565b610347565b005b6101a86101b83660046110df565b610522565b61014a6101cb3660046110f8565b6001600160a01b031660009081526033602052604090205490565b6101a86101f436600461111a565b610633565b6098546040516001600160a01b03909116815260200161011a565b61010d6108ed565b61013661022a366004611079565b6108fc565b61013661023d366004611079565b610977565b61014a61025036600461114d565b610985565b60606036805461026490611180565b80601f016020809104026020016040519081016040528092919081815260200182805461029090611180565b80156102dd5780601f106102b2576101008083540402835291602001916102dd565b820191906000526020600020905b8154815290600101906020018083116102c057829003601f168201915b5050505050905090565b6000336102f58185856109b0565b60019150505b92915050565b60003361030f858285610ad5565b61031a858585610b49565b506001949350505050565b6000336102f58185856103388383610985565b61034291906111d0565b6109b0565b6098546001600160a01b031633146103a65760405162461bcd60e51b815260206004820152601760248201527f43616c6c6572206973206e6f7420746865206f776e657200000000000000000060448201526064015b60405180910390fd5b6103ae610cf4565b6001600160a01b0382166104045760405162461bcd60e51b815260206004820152601f60248201527f43616e6e6f74206d696e7420746f20746865207a65726f206164647265737300604482015260640161039d565b600081116104625760405162461bcd60e51b815260206004820152602560248201527f4d696e7420616d6f756e74206d7573742062652067726561746572207468616e604482015264207a65726f60d81b606482015260840161039d565b6097548161046f60355490565b61047991906111d0565b11156104c75760405162461bcd60e51b815260206004820152601f60248201527f4d696e74696e67206578636565647320636170616369747920737570706c7900604482015260640161039d565b6104d18282610d4d565b816001600160a01b03167f3f2c9d57c068687834f0de942a9babb9e5acab57d516d3480a3c16ee165a42738260405161050c91815260200190565b60405180910390a261051e6001606555565b5050565b61052a610cf4565b600081116105885760405162461bcd60e51b815260206004820152602560248201527f4275726e20616d6f756e74206d7573742062652067726561746572207468616e604482015264207a65726f60d81b606482015260840161039d565b336000908152603360205260409020548111156105e75760405162461bcd60e51b815260206004820152601b60248201527f4275726e20616d6f756e7420657863656564732062616c616e63650000000000604482015260640161039d565b6105f13382610e15565b60405181815233907ffd38818f5291bf0bb3a2a48aadc06ba8757865d1dabd804585338aab3009dcb69060200160405180910390a26106306001606555565b50565b600054610100900460ff16158080156106535750600054600160ff909116105b8061066d5750303b15801561066d575060005460ff166001145b6106d05760405162461bcd60e51b815260206004820152602e60248201527f496e697469616c697a61626c653a20636f6e747261637420697320616c72656160448201526d191e481a5b9a5d1a585b1a5e995960921b606482015260840161039d565b6000805460ff1916600117905580156106f3576000805461ff0019166101001790555b6001600160a01b0384166107495760405162461bcd60e51b815260206004820181905260248201527f4f776e65722063616e6e6f7420626520746865207a65726f2061646472657373604482015260640161039d565b600083116107ab5760405162461bcd60e51b815260206004820152602960248201527f436170616369747920737570706c79206d7573742062652067726561746572206044820152687468616e207a65726f60b81b606482015260840161039d565b828211156107fb5760405162461bcd60e51b815260206004820152601f60248201527f496e697469616c20737570706c79206578636565647320636170616369747900604482015260640161039d565b6108456040518060400160405280600b81526020016a2637b1b5b2902a37b5b2b760a91b815250604051806040016040528060058152602001644c4f434b4560d81b815250610f46565b61084d610f77565b6108596012600a6112c7565b61086390846112d6565b609755609880546001600160a01b0319166001600160a01b0386161790556108a184601261089290600a6112c7565b61089c90856112d6565b610d4d565b80156108e7576000805461ff0019169055604051600181527f7f26b83ff96e1f2b6a682f133852f6798a09c465da95921460cefb38474024989060200160405180910390a15b50505050565b60606037805461026490611180565b6000338161090a8286610985565b90508381101561096a5760405162461bcd60e51b815260206004820152602560248201527f45524332303a2064656372656173656420616c6c6f77616e63652062656c6f77604482015264207a65726f60d81b606482015260840161039d565b61031a82868684036109b0565b6000336102f5818585610b49565b6001600160a01b03918216600090815260346020908152604080832093909416825291909152205490565b6001600160a01b038316610a125760405162461bcd60e51b8152602060048201526024808201527f45524332303a20617070726f76652066726f6d20746865207a65726f206164646044820152637265737360e01b606482015260840161039d565b6001600160a01b038216610a735760405162461bcd60e51b815260206004820152602260248201527f45524332303a20617070726f766520746f20746865207a65726f206164647265604482015261737360f01b606482015260840161039d565b6001600160a01b0383811660008181526034602090815260408083209487168084529482529182902085905590518481527f8c5be1e5ebec7d5bd14f71427d1e84f3dd0314c0f7b2291e5b200ac8c7c3b92591015b60405180910390a3505050565b6000610ae18484610985565b905060001981146108e75781811015610b3c5760405162461bcd60e51b815260206004820152601d60248201527f45524332303a20696e73756666696369656e7420616c6c6f77616e6365000000604482015260640161039d565b6108e784848484036109b0565b6001600160a01b038316610bad5760405162461bcd60e51b815260206004820152602560248201527f45524332303a207472616e736665722066726f6d20746865207a65726f206164604482015264647265737360d81b606482015260840161039d565b6001600160a01b038216610c0f5760405162461bcd60e51b815260206004820152602360248201527f45524332303a207472616e7366657220746f20746865207a65726f206164647260448201526265737360e81b606482015260840161039d565b6001600160a01b03831660009081526033602052604090205481811015610c875760405162461bcd60e51b815260206004820152602660248201527f45524332303a207472616e7366657220616d6f756e7420657863656564732062604482015265616c616e636560d01b606482015260840161039d565b6001600160a01b0380851660008181526033602052604080822086860390559286168082529083902080548601905591517fddf252ad1be2c89b69c2b068fc378daa952ba7f163c4a11628f55a4df523b3ef90610ce79086815260200190565b60405180910390a36108e7565b600260655403610d465760405162461bcd60e51b815260206004820152601f60248201527f5265656e7472616e637947756172643a207265656e7472616e742063616c6c00604482015260640161039d565b6002606555565b6001600160a01b038216610da35760405162461bcd60e51b815260206004820152601f60248201527f45524332303a206d696e7420746f20746865207a65726f206164647265737300604482015260640161039d565b8060356000828254610db591906111d0565b90915550506001600160a01b0382166000818152603360209081526040808320805486019055518481527fddf252ad1be2c89b69c2b068fc378daa952ba7f163c4a11628f55a4df523b3ef910160405180910390a35050565b6001606555565b6001600160a01b038216610e755760405162461bcd60e51b815260206004820152602160248201527f45524332303a206275726e2066726f6d20746865207a65726f206164647265736044820152607360f81b606482015260840161039d565b6001600160a01b03821660009081526033602052604090205481811015610ee95760405162461bcd60e51b815260206004820152602260248201527f45524332303a206275726e20616d6f756e7420657863656564732062616c616e604482015261636560f01b606482015260840161039d565b6001600160a01b03831660008181526033602090815260408083208686039055603580548790039055518581529192917fddf252ad1be2c89b69c2b068fc378daa952ba7f163c4a11628f55a4df523b3ef9101610ac8565b505050565b600054610100900460ff16610f6d5760405162461bcd60e51b815260040161039d906112ed565b61051e8282610fa8565b600054610100900460ff16610f9e5760405162461bcd60e51b815260040161039d906112ed565b610fa6610fe8565b565b600054610100900460ff16610fcf5760405162461bcd60e51b815260040161039d906112ed565b6036610fdb838261139c565b506037610f41828261139c565b600054610100900460ff16610e0e5760405162461bcd60e51b815260040161039d906112ed565b600060208083528351808285015260005b8181101561103c57858101830151858201604001528201611020565b506000604082860101526040601f19601f8301168501019250505092915050565b80356001600160a01b038116811461107457600080fd5b919050565b6000806040838503121561108c57600080fd5b6110958361105d565b946020939093013593505050565b6000806000606084860312156110b857600080fd5b6110c18461105d565b92506110cf6020850161105d565b9150604084013590509250925092565b6000602082840312156110f157600080fd5b5035919050565b60006020828403121561110a57600080fd5b6111138261105d565b9392505050565b60008060006060848603121561112f57600080fd5b6111388461105d565b95602085013595506040909401359392505050565b6000806040838503121561116057600080fd5b6111698361105d565b91506111776020840161105d565b90509250929050565b600181811c9082168061119457607f821691505b6020821081036111b457634e487b7160e01b600052602260045260246000fd5b50919050565b634e487b7160e01b600052601160045260246000fd5b808201808211156102fb576102fb6111ba565b600181815b8085111561121e578160001904821115611204576112046111ba565b8085161561121157918102915b93841c93908002906111e8565b509250929050565b600082611235575060016102fb565b81611242575060006102fb565b816001811461125857600281146112625761127e565b60019150506102fb565b60ff841115611273576112736111ba565b50506001821b6102fb565b5060208310610133831016604e8410600b84101617156112a1575081810a6102fb565b6112ab83836111e3565b80600019048211156112bf576112bf6111ba565b029392505050565b600061111360ff841683611226565b80820281158282048414176102fb576102fb6111ba565b6020808252602b908201527f496e697469616c697a61626c653a20636f6e7472616374206973206e6f74206960408201526a6e697469616c697a696e6760a81b606082015260800190565b634e487b7160e01b600052604160045260246000fd5b601f821115610f4157600081815260208120601f850160051c810160208610156113755750805b601f850160051c820191505b8181101561139457828155600101611381565b505050505050565b815167ffffffffffffffff8111156113b6576113b6611338565b6113ca816113c48454611180565b8461134e565b602080601f8311600181146113ff57600084156113e75750858301515b600019600386901b1c1916600185901b178555611394565b600085815260208120601f198616915b8281101561142e5788860151825594840194600190910190840161140f565b508582101561144c5787850151600019600388901b60f8161c191681555b5050505050600190811b0190555056fea26469706673582212209e7bd122ae04e02e1810884bc6982e1b07b553c7ca21ca1175c37897bc2e7ec764736f6c63430008110033",
  "linkReferences": {},
  "deployedLinkReferences": {}
}